{
  "_format": "hh-sol-artifact-1",
  "contractName": "FHEBlindNFT",
  "sourceName": "src/FHEBlindNFT.sol",
  "abi": [
    {
      "inputs": [
        {
          "internalType": "string",
          "name": "name_",
          "type": "string"
        },
        {
          "internalType": "string",
          "name": "symbol_",
          "type": "string"
        },
        {
          "internalType": "address",
          "name": "owner_",
          "type": "address"
        }
      ],
      "stateMutability": "nonpayable",
      "type": "constructor"
    },
    {
      "inputs": [],
      "name": "ERC721EnumerableForbiddenBatchMint",
      "type": "error"
    },
    {
      "inputs": [
        {
          "internalType": "address",
          "name": "sender",
          "type": "address"
        },
        {
          "internalType": "uint256",
          "name": "tokenId",
          "type": "uint256"
        },
        {
          "internalType": "address",
          "name": "owner",
          "type": "address"
        }
      ],
      "name": "ERC721IncorrectOwner",
      "type": "error"
    },
    {
      "inputs": [
        {
          "internalType": "address",
          "name": "operator",
          "type": "address"
        },
        {
          "internalType": "uint256",
          "name": "tokenId",
          "type": "uint256"
        }
      ],
      "name": "ERC721InsufficientApproval",
      "type": "error"
    },
    {
      "inputs": [
        {
          "internalType": "address",
          "name": "approver",
          "type": "address"
        }
      ],
      "name": "ERC721InvalidApprover",
      "type": "error"
    },
    {
      "inputs": [
        {
          "internalType": "address",
          "name": "operator",
          "type": "address"
        }
      ],
      "name": "ERC721InvalidOperator",
      "type": "error"
    },
    {
      "inputs": [
        {
          "internalType": "address",
          "name": "owner",
          "type": "address"
        }
      ],
      "name": "ERC721InvalidOwner",
      "type": "error"
    },
    {
      "inputs": [
        {
          "internalType": "address",
          "name": "receiver",
          "type": "address"
        }
      ],
      "name": "ERC721InvalidReceiver",
      "type": "error"
    },
    {
      "inputs": [
        {
          "internalType": "address",
          "name": "sender",
          "type": "address"
        }
      ],
      "name": "ERC721InvalidSender",
      "type": "error"
    },
    {
      "inputs": [
        {
          "internalType": "uint256",
          "name": "tokenId",
          "type": "uint256"
        }
      ],
      "name": "ERC721NonexistentToken",
      "type": "error"
    },
    {
      "inputs": [
        {
          "internalType": "address",
          "name": "owner",
          "type": "address"
        },
        {
          "internalType": "uint256",
          "name": "index",
          "type": "uint256"
        }
      ],
      "name": "ERC721OutOfBoundsIndex",
      "type": "error"
    },
    {
      "inputs": [
        {
          "internalType": "address",
          "name": "owner",
          "type": "address"
        }
      ],
      "name": "OwnableInvalidOwner",
      "type": "error"
    },
    {
      "inputs": [
        {
          "internalType": "address",
          "name": "account",
          "type": "address"
        }
      ],
      "name": "OwnableUnauthorizedAccount",
      "type": "error"
    },
    {
      "inputs": [],
      "name": "ReentrancyGuardReentrantCall",
      "type": "error"
    },
    {
      "anonymous": false,
      "inputs": [
        {
          "indexed": true,
          "internalType": "address",
          "name": "owner",
          "type": "address"
        },
        {
          "indexed": true,
          "internalType": "address",
          "name": "approved",
          "type": "address"
        },
        {
          "indexed": true,
          "internalType": "uint256",
          "name": "tokenId",
          "type": "uint256"
        }
      ],
      "name": "Approval",
      "type": "event"
    },
    {
      "anonymous": false,
      "inputs": [
        {
          "indexed": true,
          "internalType": "address",
          "name": "owner",
          "type": "address"
        },
        {
          "indexed": true,
          "internalType": "address",
          "name": "operator",
          "type": "address"
        },
        {
          "indexed": false,
          "internalType": "bool",
          "name": "approved",
          "type": "bool"
        }
      ],
      "name": "ApprovalForAll",
      "type": "event"
    },
    {
      "anonymous": false,
      "inputs": [
        {
          "indexed": true,
          "internalType": "address",
          "name": "to",
          "type": "address"
        },
        {
          "indexed": true,
          "internalType": "uint256",
          "name": "tokenId",
          "type": "uint256"
        }
      ],
      "name": "MintBlind",
      "type": "event"
    },
    {
      "anonymous": false,
      "inputs": [
        {
          "indexed": true,
          "internalType": "address",
          "name": "previousOwner",
          "type": "address"
        },
        {
          "indexed": true,
          "internalType": "address",
          "name": "newOwner",
          "type": "address"
        }
      ],
      "name": "OwnershipTransferred",
      "type": "event"
    },
    {
      "anonymous": false,
      "inputs": [
        {
          "indexed": true,
          "internalType": "uint256",
          "name": "tokenId",
          "type": "uint256"
        }
      ],
      "name": "TraitSet",
      "type": "event"
    },
    {
      "anonymous": false,
      "inputs": [
        {
          "indexed": true,
          "internalType": "address",
          "name": "from",
          "type": "address"
        },
        {
          "indexed": true,
          "internalType": "address",
          "name": "to",
          "type": "address"
        },
        {
          "indexed": true,
          "internalType": "uint256",
          "name": "tokenId",
          "type": "uint256"
        }
      ],
      "name": "Transfer",
      "type": "event"
    },
    {
      "inputs": [
        {
          "internalType": "address",
          "name": "to",
          "type": "address"
        },
        {
          "internalType": "uint256",
          "name": "tokenId",
          "type": "uint256"
        }
      ],
      "name": "approve",
      "outputs": [],
      "stateMutability": "nonpayable",
      "type": "function"
    },
    {
      "inputs": [
        {
          "internalType": "address",
          "name": "owner",
          "type": "address"
        }
      ],
      "name": "balanceOf",
      "outputs": [
        {
          "internalType": "uint256",
          "name": "",
          "type": "uint256"
        }
      ],
      "stateMutability": "view",
      "type": "function"
    },
    {
      "inputs": [
        {
          "internalType": "uint256",
          "name": "tokenId",
          "type": "uint256"
        }
      ],
      "name": "getApproved",
      "outputs": [
        {
          "internalType": "address",
          "name": "",
          "type": "address"
        }
      ],
      "stateMutability": "view",
      "type": "function"
    },
    {
      "inputs": [
        {
          "internalType": "uint256",
          "name": "tokenId",
          "type": "uint256"
        }
      ],
      "name": "getTrait",
      "outputs": [
        {
          "internalType": "euint32",
          "name": "",
          "type": "bytes32"
        }
      ],
      "stateMutability": "view",
      "type": "function"
    },
    {
      "inputs": [
        {
          "internalType": "address",
          "name": "owner",
          "type": "address"
        },
        {
          "internalType": "address",
          "name": "operator",
          "type": "address"
        }
      ],
      "name": "isApprovedForAll",
      "outputs": [
        {
          "internalType": "bool",
          "name": "",
          "type": "bool"
        }
      ],
      "stateMutability": "view",
      "type": "function"
    },
    {
      "inputs": [],
      "name": "maxPerWallet",
      "outputs": [
        {
          "internalType": "uint256",
          "name": "",
          "type": "uint256"
        }
      ],
      "stateMutability": "view",
      "type": "function"
    },
    {
      "inputs": [],
      "name": "maxSupply",
      "outputs": [
        {
          "internalType": "uint256",
          "name": "",
          "type": "uint256"
        }
      ],
      "stateMutability": "view",
      "type": "function"
    },
    {
      "inputs": [],
      "name": "mintActive",
      "outputs": [
        {
          "internalType": "bool",
          "name": "",
          "type": "bool"
        }
      ],
      "stateMutability": "view",
      "type": "function"
    },
    {
      "inputs": [
        {
          "internalType": "address",
          "name": "to",
          "type": "address"
        },
        {
          "internalType": "externalEuint32",
          "name": "ctTrait",
          "type": "bytes32"
        },
        {
          "internalType": "bytes",
          "name": "inputProof",
          "type": "bytes"
        }
      ],
      "name": "mintBlind",
      "outputs": [
        {
          "internalType": "uint256",
          "name": "tokenId",
          "type": "uint256"
        }
      ],
      "stateMutability": "payable",
      "type": "function"
    },
    {
      "inputs": [
        {
          "internalType": "address",
          "name": "to",
          "type": "address"
        },
        {
          "internalType": "externalEuint32[]",
          "name": "ctTraits",
          "type": "bytes32[]"
        },
        {
          "internalType": "bytes",
          "name": "inputProof",
          "type": "bytes"
        }
      ],
      "name": "mintBlindBatch",
      "outputs": [
        {
          "internalType": "uint256[]",
          "name": "tokenIds",
          "type": "uint256[]"
        }
      ],
      "stateMutability": "payable",
      "type": "function"
    },
    {
      "inputs": [],
      "name": "mintPrice",
      "outputs": [
        {
          "internalType": "uint256",
          "name": "",
          "type": "uint256"
        }
      ],
      "stateMutability": "view",
      "type": "function"
    },
    {
      "inputs": [
        {
          "internalType": "uint256",
          "name": "",
          "type": "uint256"
        }
      ],
      "name": "mintedAt",
      "outputs": [
        {
          "internalType": "uint256",
          "name": "",
          "type": "uint256"
        }
      ],
      "stateMutability": "view",
      "type": "function"
    },
    {
      "inputs": [
        {
          "internalType": "address",
          "name": "",
          "type": "address"
        }
      ],
      "name": "mintedPerWallet",
      "outputs": [
        {
          "internalType": "uint256",
          "name": "",
          "type": "uint256"
        }
      ],
      "stateMutability": "view",
      "type": "function"
    },
    {
      "inputs": [],
      "name": "name",
      "outputs": [
        {
          "internalType": "string",
          "name": "",
          "type": "string"
        }
      ],
      "stateMutability": "view",
      "type": "function"
    },
    {
      "inputs": [],
      "name": "nextId",
      "outputs": [
        {
          "internalType": "uint256",
          "name": "",
          "type": "uint256"
        }
      ],
      "stateMutability": "view",
      "type": "function"
    },
    {
      "inputs": [],
      "name": "owner",
      "outputs": [
        {
          "internalType": "address",
          "name": "",
          "type": "address"
        }
      ],
      "stateMutability": "view",
      "type": "function"
    },
    {
      "inputs": [
        {
          "internalType": "uint256",
          "name": "tokenId",
          "type": "uint256"
        }
      ],
      "name": "ownerOf",
      "outputs": [
        {
          "internalType": "address",
          "name": "",
          "type": "address"
        }
      ],
      "stateMutability": "view",
      "type": "function"
    },
    {
      "inputs": [],
      "name": "protocolId",
      "outputs": [
        {
          "internalType": "uint256",
          "name": "",
          "type": "uint256"
        }
      ],
      "stateMutability": "pure",
      "type": "function"
    },
    {
      "inputs": [],
      "name": "renounceOwnership",
      "outputs": [],
      "stateMutability": "nonpayable",
      "type": "function"
    },
    {
      "inputs": [
        {
          "internalType": "address",
          "name": "from",
          "type": "address"
        },
        {
          "internalType": "address",
          "name": "to",
          "type": "address"
        },
        {
          "internalType": "uint256",
          "name": "tokenId",
          "type": "uint256"
        }
      ],
      "name": "safeTransferFrom",
      "outputs": [],
      "stateMutability": "nonpayable",
      "type": "function"
    },
    {
      "inputs": [
        {
          "internalType": "address",
          "name": "from",
          "type": "address"
        },
        {
          "internalType": "address",
          "name": "to",
          "type": "address"
        },
        {
          "internalType": "uint256",
          "name": "tokenId",
          "type": "uint256"
        },
        {
          "internalType": "bytes",
          "name": "data",
          "type": "bytes"
        }
      ],
      "name": "safeTransferFrom",
      "outputs": [],
      "stateMutability": "nonpayable",
      "type": "function"
    },
    {
      "inputs": [
        {
          "internalType": "address",
          "name": "operator",
          "type": "address"
        },
        {
          "internalType": "bool",
          "name": "approved",
          "type": "bool"
        }
      ],
      "name": "setApprovalForAll",
      "outputs": [],
      "stateMutability": "nonpayable",
      "type": "function"
    },
    {
      "inputs": [
        {
          "internalType": "bool",
          "name": "_active",
          "type": "bool"
        },
        {
          "internalType": "uint256",
          "name": "_maxSupply",
          "type": "uint256"
        },
        {
          "internalType": "uint256",
          "name": "_maxPerWallet",
          "type": "uint256"
        },
        {
          "internalType": "uint256",
          "name": "_mintPrice",
          "type": "uint256"
        }
      ],
      "name": "setMintConfig",
      "outputs": [],
      "stateMutability": "nonpayable",
      "type": "function"
    },
    {
      "inputs": [
        {
          "internalType": "uint256",
          "name": "tokenId",
          "type": "uint256"
        },
        {
          "internalType": "externalEuint32",
          "name": "ctTrait",
          "type": "bytes32"
        },
        {
          "internalType": "bytes",
          "name": "inputProof",
          "type": "bytes"
        }
      ],
      "name": "setTrait",
      "outputs": [],
      "stateMutability": "nonpayable",
      "type": "function"
    },
    {
      "inputs": [
        {
          "internalType": "bytes4",
          "name": "interfaceId",
          "type": "bytes4"
        }
      ],
      "name": "supportsInterface",
      "outputs": [
        {
          "internalType": "bool",
          "name": "",
          "type": "bool"
        }
      ],
      "stateMutability": "view",
      "type": "function"
    },
    {
      "inputs": [],
      "name": "symbol",
      "outputs": [
        {
          "internalType": "string",
          "name": "",
          "type": "string"
        }
      ],
      "stateMutability": "view",
      "type": "function"
    },
    {
      "inputs": [
        {
          "internalType": "uint256",
          "name": "index",
          "type": "uint256"
        }
      ],
      "name": "tokenByIndex",
      "outputs": [
        {
          "internalType": "uint256",
          "name": "",
          "type": "uint256"
        }
      ],
      "stateMutability": "view",
      "type": "function"
    },
    {
      "inputs": [
        {
          "internalType": "address",
          "name": "owner",
          "type": "address"
        },
        {
          "internalType": "uint256",
          "name": "index",
          "type": "uint256"
        }
      ],
      "name": "tokenOfOwnerByIndex",
      "outputs": [
        {
          "internalType": "uint256",
          "name": "",
          "type": "uint256"
        }
      ],
      "stateMutability": "view",
      "type": "function"
    },
    {
      "inputs": [
        {
          "internalType": "uint256",
          "name": "tokenId",
          "type": "uint256"
        }
      ],
      "name": "tokenURI",
      "outputs": [
        {
          "internalType": "string",
          "name": "",
          "type": "string"
        }
      ],
      "stateMutability": "view",
      "type": "function"
    },
    {
      "inputs": [],
      "name": "totalSupply",
      "outputs": [
        {
          "internalType": "uint256",
          "name": "",
          "type": "uint256"
        }
      ],
      "stateMutability": "view",
      "type": "function"
    },
    {
      "inputs": [
        {
          "internalType": "address",
          "name": "from",
          "type": "address"
        },
        {
          "internalType": "address",
          "name": "to",
          "type": "address"
        },
        {
          "internalType": "uint256",
          "name": "tokenId",
          "type": "uint256"
        }
      ],
      "name": "transferFrom",
      "outputs": [],
      "stateMutability": "nonpayable",
      "type": "function"
    },
    {
      "inputs": [
        {
          "internalType": "address",
          "name": "newOwner",
          "type": "address"
        }
      ],
      "name": "transferOwnership",
      "outputs": [],
      "stateMutability": "nonpayable",
      "type": "function"
    },
    {
      "inputs": [
        {
          "internalType": "uint256",
          "name": "tokenId",
          "type": "uint256"
        },
        {
          "internalType": "externalEuint32",
          "name": "ctThreshold",
          "type": "bytes32"
        },
        {
          "internalType": "bytes",
          "name": "thresholdProof",
          "type": "bytes"
        }
      ],
      "name": "verifyTraitGte",
      "outputs": [
        {
          "internalType": "ebool",
          "name": "",
          "type": "bytes32"
        }
      ],
      "stateMutability": "nonpayable",
      "type": "function"
    }
  ],
  "bytecode": "0x60806040523461051a5761255a803803806100198161053d565b92833981019060608183031261051a5780516001600160401b03811161051a5782610045918301610562565b60208201519092906001600160401b03811161051a57604091610069918401610562565b9101516001600160a01b0381169081900361051a5782516001600160401b03811161042e575f54600181811c91168015610510575b602082101461041057601f81116104ae575b506020601f821160011461044d57819293945f92610442575b50508160011b915f199060031b1c1916175f555b81516001600160401b03811161042e57600154600181811c91168015610424575b602082101461041057601f81116103ad575b50602092601f821160011461034c57928192935f92610341575b50508160011b915f199060031b1c1916176001555b801561032e57600a80546001600160a01b0319811683179091556001600160a01b03167f8be0079c531659141344cd1fd0a4f28419497f9722a3daafe3b4186f6b6457e05f80a35f606061019161051e565b8281528260208201528260408201520152731364cbbf2cdf5032c47d8226a6f6fbd2afcdacac60606101c161051e565b73687820221192c5b662b25367f70076a37bc79b6c815273848b0066793bcc60346da1f49049357399b8d595602082015273a02cda4ca3a71d7c46997716f4283aa851c288126040820152015273687820221192c5b662b25367f70076a37bc79b6c60018060a01b03195f51602061253a5f395f51905f525416175f51602061253a5f395f51905f525573848b0066793bcc60346da1f49049357399b8d59560018060a01b03195f5160206124fa5f395f51905f525416175f5160206124fa5f395f51905f525573a02cda4ca3a71d7c46997716f4283aa851c2881260018060a01b03195f51602061251a5f395f51905f525416175f51602061251a5f395f51905f5255731364cbbf2cdf5032c47d8226a6f6fbd2afcdacac60018060a01b03195f5160206124da5f395f51905f525416175f5160206124da5f395f51905f52556001600b555f19600f5560016010555f60115560ff1960125416601255604051611f2690816105b48239f35b631e4fbdf760e01b5f525f60045260245ffd5b015190505f8061012a565b601f1982169360015f52805f20915f5b868110610395575083600195961061037d575b505050811b0160015561013f565b01515f1960f88460031b161c191690555f808061036f565b9192602060018192868501518155019401920161035c565b60015f527fb10e2d527612073b26eecdfd717e6a320cf44b4afac2b0732d9fcbe2b7fa0cf6601f830160051c81019160208410610406575b601f0160051c01905b8181106103fb5750610110565b5f81556001016103ee565b90915081906103e5565b634e487b7160e01b5f52602260045260245ffd5b90607f16906100fe565b634e487b7160e01b5f52604160045260245ffd5b015190505f806100c9565b601f198216905f8052805f20915f5b8181106104965750958360019596971061047e575b505050811b015f556100dd565b01515f1960f88460031b161c191690555f8080610471565b9192602060018192868b01518155019401920161045c565b5f80527f290decd9548b62a8d60345a988386fc84ba6bc95484008f6362f93160ef3e563601f830160051c81019160208410610506575b601f0160051c01905b8181106104fb57506100b0565b5f81556001016104ee565b90915081906104e5565b90607f169061009e565b5f80fd5b60405190608082016001600160401b0381118382101761042e57604052565b6040519190601f01601f191682016001600160401b0381118382101761042e57604052565b81601f8201121561051a578051906001600160401b03821161042e57610591601f8301601f191660200161053d565b928284526020838301011161051a57815f9260208093018386015e830101529056fe6080806040526004361015610012575f80fd5b5f905f3560e01c90816301ffc9a71461110e5750806306fdde0314611056578063081812fc1461101a578063095ea7b314610f3057806318160ddd14610f1357806323b872dd14610efc57806325fd90f314610eda5780632f745c5914610e685780633a602b4d14610e3057806340815b3914610d5e57806342842e0e14610d2f578063453c231014610d12578063484c8e3e14610bcb5780634f6ccce714610b7d57806361b8ce8c14610b605780636352211e14610b305780636817c76c14610b1357806370a0823114610ae8578063715018a614610a8d5780637e456703146109635780638da5cb5b1461093b57806395d89b4114610833578063a22cb46514610798578063a405cb5b146104d4578063acb586df14610488578063b88d4fde1461041a578063c87b56dd146103bd578063d5abeb011461039f578063da1f12ab14610382578063e421849514610296578063e985e9c51461023e578063f1b0aa15146102145763f2fde38b14610189575f80fd5b34610211576020366003190112610211576101a26111b7565b6101aa61179b565b6001600160a01b031680156101fd57600a80546001600160a01b0319811683179091556001600160a01b03167f8be0079c531659141344cd1fd0a4f28419497f9722a3daafe3b4186f6b6457e05f80a380f35b631e4fbdf760e01b82526004829052602482fd5b80fd5b50346102115760203660031901126102115760406020916004358152600e83522054604051908152f35b503461021157604036600319011261021157604061025a6111b7565b916102636111cd565b9260018060a01b031681526005602052209060018060a01b03165f52602052602060ff60405f2054166040519015158152f35b5034610211576102a53661124b565b9190838552600260205260018060a01b036040862054169182151580610371575b15610340576102dd6102e3926103199536916112d4565b90611b0d565b838552600d6020526040852055828452600d60205261030760408520543090611ddf565b828452600d6020526040842054611ddf565b7feb2e4dcfdae7342f2fc0b10a711791cb225f3f8cde69eba402a9f9485d13baa68280a280f35b60405162461bcd60e51b81526020600482015260096024820152683737ba1037bbb732b960b91b6044820152606490fd5b5061037d853385611d54565b6102c6565b503461021157806003193601126102115760206040516127118152f35b50346102115780600319360112610211576020600f54604051908152f35b34610416576020366003190112610416576103d9600435611767565b505f6040516103e9602082611282565b526104126040516103fb602082611282565b5f8152604051918291602083526020830190611193565b0390f35b5f80fd5b34610416576080366003190112610416576104336111b7565b61043b6111cd565b906044356064359267ffffffffffffffff84116104165736602385011215610416576104746104869436906024816004013591016112d4565b9261048083838361130a565b33611c30565b005b34610416576020366003190112610416576004355f818152600260205260409020546104be906001600160a01b0316151561170b565b5f52600d602052602060405f2054604051908152f35b6060366003190112610416576104e86111b7565b60243567ffffffffffffffff811161041657366023820112156104165780600401359067ffffffffffffffff8211610416573660248360051b830101116104165760443567ffffffffffffffff81116104165761054990369060040161121d565b6105549491946117c2565b61056260ff60125416611596565b8315158061078d575b156107565761058961057f85600c54611742565b600f5410156115d2565b6001600160a01b0382169161059f338414611609565b335f5260136020526105c26105b88660405f2054611742565b6010541015611641565b60115485810290808204871490151715610742576105e190341461167c565b6105ea8561174f565b916105f86040519384611282565b8583526106048661174f565b6020840190601f19013682375f5b878110156106e657600c5490610627826116b4565b600c5585518110156106d2578161066887602461065e8e60019760208860051b8096010152610656868c6117e2565b8936916112d4565b918c010135611b0d565b5f828152600d60205260409020819055610683903090611ddf565b805f52600d6020526106998660405f2054611ddf565b805f52600e6020524260405f2055877f4e4f3e3d6ab9c5dbab5ff4ebacb700c29f98ad8724afd13f07ef28ee0905c4a65f80a301610612565b634e487b7160e01b5f52603260045260245ffd5b818589335f52601360205260405f209081540190556001600b55604051918291602083019060208452518091526040830191905f5b818110610729575050500390f35b825184528594506020938401939092019160010161071b565b634e487b7160e01b5f52601160045260245ffd5b60405162461bcd60e51b815260206004820152600f60248201526e312d31302062617463682073697a6560881b6044820152606490fd5b50600a84111561056b565b34610416576040366003190112610416576107b16111b7565b60243590811515809203610416576001600160a01b031690811561082057335f52600560205260405f20825f5260205260405f2060ff1981541660ff83161790556040519081527f17307eab39ab6107e8899845ad3d59bd9653f200f220920489ca2b5937696c3160203392a3005b50630b61174360e31b5f5260045260245ffd5b34610416575f366003190112610416576040515f6001548060011c90600181168015610931575b60208310811461091d578285529081156108f9575060011461089b575b6104128361088781850382611282565b604051918291602083526020830190611193565b91905060015f527fb10e2d527612073b26eecdfd717e6a320cf44b4afac2b0732d9fcbe2b7fa0cf6915f905b8082106108df57509091508101602001610887610877565b9192600181602092548385880101520191019092916108c7565b60ff191660208086019190915291151560051b840190910191506108879050610877565b634e487b7160e01b5f52602260045260245ffd5b91607f169161085a565b34610416575f36600319011261041657600a546040516001600160a01b039091168152602090f35b34610416576102dd6109a46109773661124b565b5f848152600260205260409020549395929361099d906001600160a01b0316151561170b565b36916112d4565b905f52600d60205260405f205490808215610a7d575b15610a6b575b602090606460018060a01b037f9e7b61f58c47dc699ac88507c4f5bb9f121c03808c5676a8078fe583e46497015416935f6040519586948593631391547f60e01b8552600485015260248401528160448401525af18015610a60575f90610a2d575b602090604051908152f35b506020813d602011610a58575b81610a4760209383611282565b810103126104165760209051610a22565b3d9150610a3a565b6040513d5f823e3d90fd5b506020610a76611e5c565b90506109c0565b9150610a87611e5c565b916109ba565b34610416575f36600319011261041657610aa561179b565b600a80546001600160a01b031981169091555f906001600160a01b03167f8be0079c531659141344cd1fd0a4f28419497f9722a3daafe3b4186f6b6457e08280a3005b34610416576020366003190112610416576020610b0b610b066111b7565b6116da565b604051908152f35b34610416575f366003190112610416576020601154604051908152f35b34610416576020366003190112610416576020610b4e600435611767565b6040516001600160a01b039091168152f35b34610416575f366003190112610416576020600c54604051908152f35b3461041657602036600319011261041657600435600854811015610bb557610ba66020916116c2565b90549060031b1c604051908152f35b63295f44f760e21b5f525f60045260245260445ffd5b606036600319011261041657610bdf6111b7565b60443567ffffffffffffffff811161041657602091610c05610cc192369060040161121d565b929091610c106117c2565b610c1e60ff60125416611596565b610c8e610c86600c5494610c35600f5487106115d2565b6001600160a01b03841696610c4b338914611609565b335f5260138952610c6360405f205460105411611641565b610c70601154341461167c565b610c79876116b4565b600c5561099d87866117e2565b602435611b0d565b835f52600d865260405f2055825f52600d8552610cb060405f20543090611ddf565b825f52600d855260405f2054611ddf565b805f52600e83524260405f2055335f526013835260405f206001815401905580604051927f4e4f3e3d6ab9c5dbab5ff4ebacb700c29f98ad8724afd13f07ef28ee0905c4a65f80a36001600b558152f35b34610416575f366003190112610416576020601054604051908152f35b3461041657610486610d40366111e3565b9060405192610d50602085611282565b5f845261048083838361130a565b34610416576080366003190112610416576004358015158091036104165760243560443591610d8b61179b565b60ff80196012541691161760125580610de7575b508015610db157601055606435601155005b60405162461bcd60e51b815260206004820152600e60248201526d07065722077616c6c6574203d20360941b6044820152606490fd5b600c548110610df957600f5581610d9f565b60405162461bcd60e51b815260206004820152600f60248201526e1cdd5c1c1b1e480f081b5a5b9d1959608a1b6044820152606490fd5b34610416576020366003190112610416576001600160a01b03610e516111b7565b165f526013602052602060405f2054604051908152f35b3461041657604036600319011261041657610e816111b7565b60243590610e8e816116da565b821015610ebd5760018060a01b03165f52600660205260405f20905f52602052602060405f2054604051908152f35b63295f44f760e21b5f5260018060a01b031660045260245260445ffd5b34610416575f36600319011261041657602060ff601254166040519015158152f35b3461041657610486610f0d366111e3565b9161130a565b34610416575f366003190112610416576020600854604051908152f35b3461041657604036600319011261041657610f496111b7565b602435610f5581611767565b33151580611007575b80610fda575b610fc75781906001600160a01b0384811691167f8c5be1e5ebec7d5bd14f71427d1e84f3dd0314c0f7b2291e5b200ac8c7c3b9255f80a45f90815260046020526040902080546001600160a01b0319166001600160a01b03909216919091179055005b63a9fbf51f60e01b5f523360045260245ffd5b506001600160a01b0381165f90815260056020908152604080832033845290915290205460ff1615610f64565b506001600160a01b038116331415610f5e565b346104165760203660031901126104165760043561103781611767565b505f526004602052602060018060a01b0360405f205416604051908152f35b34610416575f366003190112610416576040515f5f548060011c90600181168015611104575b60208310811461091d578285529081156108f957506001146110a8576104128361088781850382611282565b5f8080527f290decd9548b62a8d60345a988386fc84ba6bc95484008f6362f93160ef3e563939250905b8082106110ea57509091508101602001610887610877565b9192600181602092548385880101520191019092916110d2565b91607f169161107c565b34610416576020366003190112610416576004359063ffffffff60e01b82168092036104165760209163780e9d6360e01b8114908115611150575b5015158152f35b6380ac58cd60e01b811491508115611182575b8115611171575b5083611149565b6301ffc9a760e01b1490508361116a565b635b5e139f60e01b81149150611163565b805180835260209291819084018484015e5f828201840152601f01601f1916010190565b600435906001600160a01b038216820361041657565b602435906001600160a01b038216820361041657565b6060906003190112610416576004356001600160a01b038116810361041657906024356001600160a01b0381168103610416579060443590565b9181601f840112156104165782359167ffffffffffffffff8311610416576020838186019501011161041657565b60606003198201126104165760043591602435916044359067ffffffffffffffff82116104165761127e9160040161121d565b9091565b90601f8019910116810190811067ffffffffffffffff8211176112a457604052565b634e487b7160e01b5f52604160045260245ffd5b67ffffffffffffffff81116112a457601f01601f191660200190565b9291926112e0826112b8565b916112ee6040519384611282565b829481845281830111610416578281602093845f960137010152565b6001600160a01b03821692918315611583575f838152600260205260409020546001600160a01b03169333611546575b84159081159182611513575b815f52600360205260405f2060018154019055855f52600260205260405f20826bffffffffffffffffffffffff60a01b8254161790558582887fddf252ad1be2c89b69c2b068fc378daa952ba7f163c4a11628f55a4df523b3ef5f80a41561149657600854855f5260096020528060405f2055600160401b8110156112a457856113d98260016113f194016008556116c2565b90919082549060031b91821b915f19901b1916179055565b808603611457575b508061144f575b611433575b506001600160a01b031680830361141b57505050565b6364283d7b60e01b5f5260045260245260445260645ffd5b61144990835f52600d60205260405f2054611ddf565b5f611405565b506001611400565b611460836116da565b5f19810191908211610742575f52600660205260405f20815f526020528460405f2055845f52600760205260405f20555f6113f9565b8581146113f1576114a6866116da565b855f52600760205260405f205490875f52600660205260405f20918181036114e8575b50865f5260076020525f60408120555f526020525f60408120556113f1565b815f528260205260405f2054815f52836020528060405f20555f52600760205260405f20555f6114c9565b5f86815260046020526040902080546001600160a01b0319169055865f52600360205260405f205f198154019055611346565b611551843387611d54565b61133a57838561156d57637e27328960e01b5f5260045260245ffd5b63177e802f60e01b5f523360045260245260445ffd5b633250574960e11b5f525f60045260245ffd5b1561159d57565b60405162461bcd60e51b815260206004820152600d60248201526c6d696e7420696e61637469766560981b6044820152606490fd5b156115d957565b60405162461bcd60e51b81526020600482015260086024820152671cdbdb19081bdd5d60c21b6044820152606490fd5b1561161057565b60405162461bcd60e51b815260206004820152600960248201526837b7363c9039b2b63360b91b6044820152606490fd5b1561164857565b60405162461bcd60e51b815260206004820152600c60248201526b1dd85b1b195d081b1a5b5a5d60a21b6044820152606490fd5b1561168357565b60405162461bcd60e51b81526020600482015260096024820152686261642076616c756560b81b6044820152606490fd5b5f1981146107425760010190565b6008548110156106d25760085f5260205f2001905f90565b6001600160a01b031680156116f8575f52600360205260405f205490565b6322718ad960e21b5f525f60045260245ffd5b1561171257565b60405162461bcd60e51b81526020600482015260086024820152673737903a37b5b2b760c11b6044820152606490fd5b9190820180921161074257565b67ffffffffffffffff81116112a45760051b60200190565b5f818152600260205260409020546001600160a01b0316908115611789575090565b637e27328960e01b5f5260045260245ffd5b600a546001600160a01b031633036117af57565b63118cdaa760e01b5f523360045260245ffd5b6002600b54146117d3576002600b55565b633ee5aeb560e01b5f5260045ffd5b90602090604051906117f48383611282565b5f82526001600160a01b038416938415611583575f8281526002855260409020546001600160a01b031680158015919082611adc575b875f526003875260405f2060018154019055845f526002875260405f20886bffffffffffffffffffffffff60a01b8254161790558488837fddf252ad1be2c89b69c2b068fc378daa952ba7f163c4a11628f55a4df523b3ef5f80a415611a6657600854845f52600987528060405f2055600160401b8110156112a457846113d98260016118ba94016008556116c2565b868103611a2b575b8180611a23575b611a09575b506119f6573b6118df575b50505050565b9161191c91819495936040519384928392630a85bd0160e11b84523360048501525f60248501526044840152608060648401526084830190611193565b03815f885af15f91816119b6575b5061197f5750503d15611977573d90611942826112b8565b916119506040519384611282565b82523d5f8284013e5b815191826119745783633250574960e11b5f5260045260245ffd5b01fd5b606090611959565b909291506001600160e01b03191663757a42ff60e11b016119a457505f8080806118d9565b633250574960e11b5f5260045260245ffd5b9091508381813d83116119ef575b6119ce8183611282565b8101031261041657516001600160e01b03198116810361041657905f61192a565b503d6119c4565b6339e3563760e11b5f525f60045260245ffd5b835f52600d8652611a1e8360405f2054611ddf565b6118ce565b5060016118c9565b611a34836116da565b5f19810190811161074257875f526006875260405f20815f5287528460405f2055845f526007875260405f20556118c2565b8087146118ba57611a76816116da565b845f526007875260405f205490825f526006885260405f2091818103611ab4575b50855f52600788525f60408120555f5286525f60408120556118ba565b815f5282895260405f2054815f52838a528060405f20555f526007895260405f20555f611a97565b5f8581526004602052604080822080546001600160a01b031916905583825260038952902080545f1901905561182a565b611b6f9160209160018060a01b037f9e7b61f58c47dc699ac88507c4f5bb9f121c03808c5676a8078fe583e46497015416905f60405180968195829463196d0b9b60e01b84526004840152336024840152608060448401526084830190611193565b6004606483015203925af1908115610a60575f91611bfe575b507f9e7b61f58c47dc699ac88507c4f5bb9f121c03808c5676a8078fe583e4649700546001600160a01b0316803b1561041657604051630f8e573b60e21b815260048101839052336024820152905f908290604490829084905af18015610a6057611bf1575090565b5f611bfb91611282565b90565b90506020813d602011611c28575b81611c1960209383611282565b8101031261041657515f611b88565b3d9150611c0c565b823b611c3e575b5050505050565b604051630a85bd0160e11b81526001600160a01b039182166004820152918116602483015260448201939093526080606482015291169160209082908190611c8a906084830190611193565b03815f865af15f9181611d0f575b50611ced57503d15611ce6573d611cae816112b8565b90611cbc6040519283611282565b81523d5f602083013e5b80519081611ce15782633250574960e11b5f5260045260245ffd5b602001fd5b6060611cc6565b6001600160e01b03191663757a42ff60e11b016119a457505f80808080611c37565b9091506020813d602011611d4c575b81611d2b60209383611282565b8101031261041657516001600160e01b03198116810361041657905f611c98565b3d9150611d1e565b6001600160a01b03909116801515929183611d70575b50505090565b6001600160a01b031680821493509091908315611dbc575b508215611d9a575b50505f8080611d6a565b5f908152600460205260408120546001600160a01b0316909114915080611d90565b9092505f52600560205260405f20815f5260205260ff60405f205416915f611d88565b7f9e7b61f58c47dc699ac88507c4f5bb9f121c03808c5676a8078fe583e4649700546001600160a01b031691823b1561041657604051635ca4b5b160e11b815260048101929092526001600160a01b03166024820152905f908290604490829084905af18015610a6057611e505750565b5f611e5a91611282565b565b7f9e7b61f58c47dc699ac88507c4f5bb9f121c03808c5676a8078fe583e464970154604051639cd07acb60e01b81525f600480830182905260248301529091602091839160449183916001600160a01b03165af1908115610a60575f91611ec1575090565b90506020813d602011611ee8575b81611edc60209383611282565b81010312610416575190565b3d9150611ecf56fea26469706673582212202393f1bf7ffa879808050aa2fd0d9eb9f540d30f65a4c939aefb25aa2ef839b164736f6c634300081c00339e7b61f58c47dc699ac88507c4f5bb9f121c03808c5676a8078fe583e46497039e7b61f58c47dc699ac88507c4f5bb9f121c03808c5676a8078fe583e46497019e7b61f58c47dc699ac88507c4f5bb9f121c03808c5676a8078fe583e46497029e7b61f58c47dc699ac88507c4f5bb9f121c03808c5676a8078fe583e4649700",
  "linkReferences": {},
  "deployedLinkReferences": {}
}